{
  "_format": "hh-sol-artifact-1",
  "contractName": "PokemonCard",
  "sourceName": "contracts/PokemonCard.sol",
  "abi": [
    {
      "inputs": [],
      "stateMutability": "nonpayable",
      "type": "constructor"
    },
    {
      "inputs": [],
      "name": "ERC721EnumerableForbiddenBatchMint",
      "type": "error"
    },
    {
      "inputs": [
        {
          "internalType": "address",
          "name": "sender",
          "type": "address"
        },
        {
          "internalType": "uint256",
          "name": "tokenId",
          "type": "uint256"
        },
        {
          "internalType": "address",
          "name": "owner",
          "type": "address"
        }
      ],
      "name": "ERC721IncorrectOwner",
      "type": "error"
    },
    {
      "inputs": [
        {
          "internalType": "address",
          "name": "operator",
          "type": "address"
        },
        {
          "internalType": "uint256",
          "name": "tokenId",
          "type": "uint256"
        }
      ],
      "name": "ERC721InsufficientApproval",
      "type": "error"
    },
    {
      "inputs": [
        {
          "internalType": "address",
          "name": "approver",
          "type": "address"
        }
      ],
      "name": "ERC721InvalidApprover",
      "type": "error"
    },
    {
      "inputs": [
        {
          "internalType": "address",
          "name": "operator",
          "type": "address"
        }
      ],
      "name": "ERC721InvalidOperator",
      "type": "error"
    },
    {
      "inputs": [
        {
          "internalType": "address",
          "name": "owner",
          "type": "address"
        }
      ],
      "name": "ERC721InvalidOwner",
      "type": "error"
    },
    {
      "inputs": [
        {
          "internalType": "address",
          "name": "receiver",
          "type": "address"
        }
      ],
      "name": "ERC721InvalidReceiver",
      "type": "error"
    },
    {
      "inputs": [
        {
          "internalType": "address",
          "name": "sender",
          "type": "address"
        }
      ],
      "name": "ERC721InvalidSender",
      "type": "error"
    },
    {
      "inputs": [
        {
          "internalType": "uint256",
          "name": "tokenId",
          "type": "uint256"
        }
      ],
      "name": "ERC721NonexistentToken",
      "type": "error"
    },
    {
      "inputs": [
        {
          "internalType": "address",
          "name": "owner",
          "type": "address"
        },
        {
          "internalType": "uint256",
          "name": "index",
          "type": "uint256"
        }
      ],
      "name": "ERC721OutOfBoundsIndex",
      "type": "error"
    },
    {
      "inputs": [
        {
          "internalType": "address",
          "name": "owner",
          "type": "address"
        }
      ],
      "name": "OwnableInvalidOwner",
      "type": "error"
    },
    {
      "inputs": [
        {
          "internalType": "address",
          "name": "account",
          "type": "address"
        }
      ],
      "name": "OwnableUnauthorizedAccount",
      "type": "error"
    },
    {
      "anonymous": false,
      "inputs": [
        {
          "indexed": true,
          "internalType": "address",
          "name": "owner",
          "type": "address"
        },
        {
          "indexed": true,
          "internalType": "address",
          "name": "approved",
          "type": "address"
        },
        {
          "indexed": true,
          "internalType": "uint256",
          "name": "tokenId",
          "type": "uint256"
        }
      ],
      "name": "Approval",
      "type": "event"
    },
    {
      "anonymous": false,
      "inputs": [
        {
          "indexed": true,
          "internalType": "address",
          "name": "owner",
          "type": "address"
        },
        {
          "indexed": true,
          "internalType": "address",
          "name": "operator",
          "type": "address"
        },
        {
          "indexed": false,
          "internalType": "bool",
          "name": "approved",
          "type": "bool"
        }
      ],
      "name": "ApprovalForAll",
      "type": "event"
    },
    {
      "anonymous": false,
      "inputs": [
        {
          "indexed": true,
          "internalType": "address",
          "name": "previousOwner",
          "type": "address"
        },
        {
          "indexed": true,
          "internalType": "address",
          "name": "newOwner",
          "type": "address"
        }
      ],
      "name": "OwnershipTransferred",
      "type": "event"
    },
    {
      "anonymous": false,
      "inputs": [
        {
          "indexed": true,
          "internalType": "address",
          "name": "from",
          "type": "address"
        },
        {
          "indexed": true,
          "internalType": "address",
          "name": "to",
          "type": "address"
        },
        {
          "indexed": true,
          "internalType": "uint256",
          "name": "tokenId",
          "type": "uint256"
        }
      ],
      "name": "Transfer",
      "type": "event"
    },
    {
      "inputs": [
        {
          "internalType": "address",
          "name": "to",
          "type": "address"
        },
        {
          "internalType": "uint256",
          "name": "tokenId",
          "type": "uint256"
        }
      ],
      "name": "approve",
      "outputs": [],
      "stateMutability": "nonpayable",
      "type": "function"
    },
    {
      "inputs": [
        {
          "internalType": "address",
          "name": "owner",
          "type": "address"
        }
      ],
      "name": "balanceOf",
      "outputs": [
        {
          "internalType": "uint256",
          "name": "",
          "type": "uint256"
        }
      ],
      "stateMutability": "view",
      "type": "function"
    },
    {
      "inputs": [
        {
          "internalType": "uint256",
          "name": "tokenId",
          "type": "uint256"
        }
      ],
      "name": "getApproved",
      "outputs": [
        {
          "internalType": "address",
          "name": "",
          "type": "address"
        }
      ],
      "stateMutability": "view",
      "type": "function"
    },
    {
      "inputs": [
        {
          "internalType": "uint256",
          "name": "tokenId",
          "type": "uint256"
        }
      ],
      "name": "getPokemonAttributes",
      "outputs": [
        {
          "components": [
            {
              "internalType": "string",
              "name": "name",
              "type": "string"
            },
            {
              "internalType": "string",
              "name": "pType",
              "type": "string"
            },
            {
              "internalType": "uint256",
              "name": "attack",
              "type": "uint256"
            },
            {
              "internalType": "uint256",
              "name": "defense",
              "type": "uint256"
            }
          ],
          "internalType": "struct PokemonCard.PokemonAttributes",
          "name": "",
          "type": "tuple"
        }
      ],
      "stateMutability": "view",
      "type": "function"
    },
    {
      "inputs": [
        {
          "internalType": "address",
          "name": "owner",
          "type": "address"
        },
        {
          "internalType": "address",
          "name": "operator",
          "type": "address"
        }
      ],
      "name": "isApprovedForAll",
      "outputs": [
        {
          "internalType": "bool",
          "name": "",
          "type": "bool"
        }
      ],
      "stateMutability": "view",
      "type": "function"
    },
    {
      "inputs": [
        {
          "internalType": "address",
          "name": "to",
          "type": "address"
        },
        {
          "internalType": "string",
          "name": "name",
          "type": "string"
        },
        {
          "internalType": "string",
          "name": "_type",
          "type": "string"
        },
        {
          "internalType": "uint256",
          "name": "attack",
          "type": "uint256"
        },
        {
          "internalType": "uint256",
          "name": "defense",
          "type": "uint256"
        }
      ],
      "name": "mintCard",
      "outputs": [],
      "stateMutability": "nonpayable",
      "type": "function"
    },
    {
      "inputs": [],
      "name": "name",
      "outputs": [
        {
          "internalType": "string",
          "name": "",
          "type": "string"
        }
      ],
      "stateMutability": "view",
      "type": "function"
    },
    {
      "inputs": [],
      "name": "nextTokenId",
      "outputs": [
        {
          "internalType": "uint256",
          "name": "",
          "type": "uint256"
        }
      ],
      "stateMutability": "view",
      "type": "function"
    },
    {
      "inputs": [],
      "name": "owner",
      "outputs": [
        {
          "internalType": "address",
          "name": "",
          "type": "address"
        }
      ],
      "stateMutability": "view",
      "type": "function"
    },
    {
      "inputs": [
        {
          "internalType": "uint256",
          "name": "tokenId",
          "type": "uint256"
        }
      ],
      "name": "ownerOf",
      "outputs": [
        {
          "internalType": "address",
          "name": "",
          "type": "address"
        }
      ],
      "stateMutability": "view",
      "type": "function"
    },
    {
      "inputs": [
        {
          "internalType": "uint256",
          "name": "",
          "type": "uint256"
        }
      ],
      "name": "pokemonAttributes",
      "outputs": [
        {
          "internalType": "string",
          "name": "name",
          "type": "string"
        },
        {
          "internalType": "string",
          "name": "pType",
          "type": "string"
        },
        {
          "internalType": "uint256",
          "name": "attack",
          "type": "uint256"
        },
        {
          "internalType": "uint256",
          "name": "defense",
          "type": "uint256"
        }
      ],
      "stateMutability": "view",
      "type": "function"
    },
    {
      "inputs": [],
      "name": "renounceOwnership",
      "outputs": [],
      "stateMutability": "nonpayable",
      "type": "function"
    },
    {
      "inputs": [
        {
          "internalType": "address",
          "name": "from",
          "type": "address"
        },
        {
          "internalType": "address",
          "name": "to",
          "type": "address"
        },
        {
          "internalType": "uint256",
          "name": "tokenId",
          "type": "uint256"
        }
      ],
      "name": "safeTransferFrom",
      "outputs": [],
      "stateMutability": "nonpayable",
      "type": "function"
    },
    {
      "inputs": [
        {
          "internalType": "address",
          "name": "from",
          "type": "address"
        },
        {
          "internalType": "address",
          "name": "to",
          "type": "address"
        },
        {
          "internalType": "uint256",
          "name": "tokenId",
          "type": "uint256"
        },
        {
          "internalType": "bytes",
          "name": "data",
          "type": "bytes"
        }
      ],
      "name": "safeTransferFrom",
      "outputs": [],
      "stateMutability": "nonpayable",
      "type": "function"
    },
    {
      "inputs": [
        {
          "internalType": "address",
          "name": "operator",
          "type": "address"
        },
        {
          "internalType": "bool",
          "name": "approved",
          "type": "bool"
        }
      ],
      "name": "setApprovalForAll",
      "outputs": [],
      "stateMutability": "nonpayable",
      "type": "function"
    },
    {
      "inputs": [
        {
          "internalType": "bytes4",
          "name": "interfaceId",
          "type": "bytes4"
        }
      ],
      "name": "supportsInterface",
      "outputs": [
        {
          "internalType": "bool",
          "name": "",
          "type": "bool"
        }
      ],
      "stateMutability": "view",
      "type": "function"
    },
    {
      "inputs": [],
      "name": "symbol",
      "outputs": [
        {
          "internalType": "string",
          "name": "",
          "type": "string"
        }
      ],
      "stateMutability": "view",
      "type": "function"
    },
    {
      "inputs": [
        {
          "internalType": "uint256",
          "name": "index",
          "type": "uint256"
        }
      ],
      "name": "tokenByIndex",
      "outputs": [
        {
          "internalType": "uint256",
          "name": "",
          "type": "uint256"
        }
      ],
      "stateMutability": "view",
      "type": "function"
    },
    {
      "inputs": [
        {
          "internalType": "address",
          "name": "owner",
          "type": "address"
        },
        {
          "internalType": "uint256",
          "name": "index",
          "type": "uint256"
        }
      ],
      "name": "tokenOfOwnerByIndex",
      "outputs": [
        {
          "internalType": "uint256",
          "name": "",
          "type": "uint256"
        }
      ],
      "stateMutability": "view",
      "type": "function"
    },
    {
      "inputs": [
        {
          "internalType": "uint256",
          "name": "tokenId",
          "type": "uint256"
        }
      ],
      "name": "tokenURI",
      "outputs": [
        {
          "internalType": "string",
          "name": "",
          "type": "string"
        }
      ],
      "stateMutability": "view",
      "type": "function"
    },
    {
      "inputs": [],
      "name": "totalSupply",
      "outputs": [
        {
          "internalType": "uint256",
          "name": "",
          "type": "uint256"
        }
      ],
      "stateMutability": "view",
      "type": "function"
    },
    {
      "inputs": [
        {
          "internalType": "address",
          "name": "from",
          "type": "address"
        },
        {
          "internalType": "address",
          "name": "to",
          "type": "address"
        },
        {
          "internalType": "uint256",
          "name": "tokenId",
          "type": "uint256"
        }
      ],
      "name": "transferFrom",
      "outputs": [],
      "stateMutability": "nonpayable",
      "type": "function"
    },
    {
      "inputs": [
        {
          "internalType": "address",
          "name": "newOwner",
          "type": "address"
        }
      ],
      "name": "transferOwnership",
      "outputs": [],
      "stateMutability": "nonpayable",
      "type": "function"
    }
  ],
  "bytecode": "0x608060405234801561001057600080fd5b50336040518060400160405280600b81526020017f506f6b656d6f6e436172640000000000000000000000000000000000000000008152506040518060400160405280600481526020017f504b4d4e00000000000000000000000000000000000000000000000000000000815250816000908161008d919061043d565b50806001908161009d919061043d565b505050600073ffffffffffffffffffffffffffffffffffffffff168173ffffffffffffffffffffffffffffffffffffffff16036101125760006040517f1e4fbdf70000000000000000000000000000000000000000000000000000000081526004016101099190610550565b60405180910390fd5b6101218161012760201b60201c565b5061056b565b6000600a60009054906101000a900473ffffffffffffffffffffffffffffffffffffffff16905081600a60006101000a81548173ffffffffffffffffffffffffffffffffffffffff021916908373ffffffffffffffffffffffffffffffffffffffff1602179055508173ffffffffffffffffffffffffffffffffffffffff168173ffffffffffffffffffffffffffffffffffffffff167f8be0079c531659141344cd1fd0a4f28419497f9722a3daafe3b4186f6b6457e060405160405180910390a35050565b600081519050919050565b7f4e487b7100000000000000000000000000000000000000000000000000000000600052604160045260246000fd5b7f4e487b7100000000000000000000000000000000000000000000000000000000600052602260045260246000fd5b6000600282049050600182168061026e57607f821691505b60208210810361028157610280610227565b5b50919050565b60008190508160005260206000209050919050565b60006020601f8301049050919050565b600082821b905092915050565b6000600883026102e97fffffffffffffffffffffffffffffffffffffffffffffffffffffffffffffffff826102ac565b6102f386836102ac565b95508019841693508086168417925050509392505050565b6000819050919050565b6000819050919050565b600061033a6103356103308461030b565b610315565b61030b565b9050919050565b6000819050919050565b6103548361031f565b61036861036082610341565b8484546102b9565b825550505050565b600090565b61037d610370565b61038881848461034b565b505050565b5b818110156103ac576103a1600082610375565b60018101905061038e565b5050565b601f8211156103f1576103c281610287565b6103cb8461029c565b810160208510156103da578190505b6103ee6103e68561029c565b83018261038d565b50505b505050565b600082821c905092915050565b6000610414600019846008026103f6565b1980831691505092915050565b600061042d8383610403565b9150826002028217905092915050565b610446826101ed565b67ffffffffffffffff81111561045f5761045e6101f8565b5b6104698254610256565b6104748282856103b0565b600060209050601f8311600181146104a75760008415610495578287015190505b61049f8582610421565b865550610507565b601f1984166104b586610287565b60005b828110156104dd578489015182556001820191506020850194506020810190506104b8565b868310156104fa57848901516104f6601f891682610403565b8355505b6001600288020188555050505b505050505050565b600073ffffffffffffffffffffffffffffffffffffffff82169050919050565b600061053a8261050f565b9050919050565b61054a8161052f565b82525050565b60006020820190506105656000830184610541565b92915050565b6131738061057a6000396000f3fe608060405234801561001057600080fd5b506004361061014d5760003560e01c806370a08231116100c3578063af05033c1161007c578063af05033c1461039e578063b260325a146103ce578063b88d4fde14610401578063c87b56dd1461041d578063e985e9c51461044d578063f2fde38b1461047d5761014d565b806370a08231146102ee578063715018a61461031e57806375794a3c146103285780638da5cb5b1461034657806395d89b4114610364578063a22cb465146103825761014d565b806323b872dd1161011557806323b872dd1461020a5780632f745c591461022657806342842e0e146102565780634f6ccce7146102725780635e2c7658146102a25780636352211e146102be5761014d565b806301ffc9a71461015257806306fdde0314610182578063081812fc146101a0578063095ea7b3146101d057806318160ddd146101ec575b600080fd5b61016c6004803603810190610167919061233e565b610499565b6040516101799190612386565b60405180910390f35b61018a610513565b6040516101979190612431565b60405180910390f35b6101ba60048036038101906101b59190612489565b6105a5565b6040516101c791906124f7565b60405180910390f35b6101ea60048036038101906101e5919061253e565b6105c1565b005b6101f46105d7565b604051610201919061258d565b60405180910390f35b610224600480360381019061021f91906125a8565b6105e4565b005b610240600480360381019061023b919061253e565b6106e6565b60405161024d919061258d565b60405180910390f35b610270600480360381019061026b91906125a8565b61078f565b005b61028c60048036038101906102879190612489565b6107af565b604051610299919061258d565b60405180910390f35b6102bc60048036038101906102b79190612730565b610825565b005b6102d860048036038101906102d39190612489565b6108d5565b6040516102e591906124f7565b60405180910390f35b610308600480360381019061030391906127e3565b6108e7565b604051610315919061258d565b60405180910390f35b6103266109a1565b005b6103306109b5565b60405161033d919061258d565b60405180910390f35b61034e6109bb565b60405161035b91906124f7565b60405180910390f35b61036c6109e5565b6040516103799190612431565b60405180910390f35b61039c6004803603810190610397919061283c565b610a77565b005b6103b860048036038101906103b39190612489565b610a8d565b6040516103c5919061293f565b60405180910390f35b6103e860048036038101906103e39190612489565b610c69565b6040516103f89493929190612961565b60405180910390f35b61041b60048036038101906104169190612a55565b610da9565b005b61043760048036038101906104329190612489565b610dce565b6040516104449190612431565b60405180910390f35b61046760048036038101906104629190612ad8565b610e37565b6040516104749190612386565b60405180910390f35b610497600480360381019061049291906127e3565b610ecb565b005b60007f780e9d63000000000000000000000000000000000000000000000000000000007bffffffffffffffffffffffffffffffffffffffffffffffffffffffff1916827bffffffffffffffffffffffffffffffffffffffffffffffffffffffff1916148061050c575061050b82610f51565b5b9050919050565b60606000805461052290612b47565b80601f016020809104026020016040519081016040528092919081815260200182805461054e90612b47565b801561059b5780601f106105705761010080835404028352916020019161059b565b820191906000526020600020905b81548152906001019060200180831161057e57829003601f168201915b5050505050905090565b60006105b082611033565b506105ba826110bb565b9050919050565b6105d382826105ce6110f8565b611100565b5050565b6000600880549050905090565b600073ffffffffffffffffffffffffffffffffffffffff168273ffffffffffffffffffffffffffffffffffffffff16036106565760006040517f64a0ae9200000000000000000000000000000000000000000000000000000000815260040161064d91906124f7565b60405180910390fd5b600061066a83836106656110f8565b611112565b90508373ffffffffffffffffffffffffffffffffffffffff168173ffffffffffffffffffffffffffffffffffffffff16146106e0578382826040517f64283d7b0000000000000000000000000000000000000000000000000000000081526004016106d793929190612b78565b60405180910390fd5b50505050565b60006106f1836108e7565b82106107365782826040517fa57d13dc00000000000000000000000000000000000000000000000000000000815260040161072d929190612baf565b60405180910390fd5b600660008473ffffffffffffffffffffffffffffffffffffffff1673ffffffffffffffffffffffffffffffffffffffff168152602001908152602001600020600083815260200190815260200160002054905092915050565b6107aa83838360405180602001604052806000815250610da9565b505050565b60006107b96105d7565b82106107ff576000826040517fa57d13dc0000000000000000000000000000000000000000000000000000000081526004016107f6929190612baf565b60405180910390fd5b6008828154811061081357610812612bd8565b5b90600052602060002001549050919050565b61082d61122f565b6000600c549050604051806080016040528086815260200185815260200184815260200183815250600b6000838152602001908152602001600020600082015181600001908161087d9190612db3565b5060208201518160010190816108939190612db3565b5060408201518160020155606082015181600301559050506108b586826112b6565b600c60008154809291906108c890612eb4565b9190505550505050505050565b60006108e082611033565b9050919050565b60008073ffffffffffffffffffffffffffffffffffffffff168273ffffffffffffffffffffffffffffffffffffffff160361095a5760006040517f89c62b6400000000000000000000000000000000000000000000000000000000815260040161095191906124f7565b60405180910390fd5b600360008373ffffffffffffffffffffffffffffffffffffffff1673ffffffffffffffffffffffffffffffffffffffff168152602001908152602001600020549050919050565b6109a961122f565b6109b360006112d4565b565b600c5481565b6000600a60009054906101000a900473ffffffffffffffffffffffffffffffffffffffff16905090565b6060600180546109f490612b47565b80601f0160208091040260200160405190810160405280929190818152602001828054610a2090612b47565b8015610a6d5780601f10610a4257610100808354040283529160200191610a6d565b820191906000526020600020905b815481529060010190602001808311610a5057829003601f168201915b5050505050905090565b610a89610a826110f8565b838361139a565b5050565b610a956122aa565b600073ffffffffffffffffffffffffffffffffffffffff16610ab6836108d5565b73ffffffffffffffffffffffffffffffffffffffff1603610b0c576040517f08c379a0000000000000000000000000000000000000000000000000000000008152600401610b0390612f48565b60405180910390fd5b600b6000838152602001908152602001600020604051806080016040529081600082018054610b3a90612b47565b80601f0160208091040260200160405190810160405280929190818152602001828054610b6690612b47565b8015610bb35780601f10610b8857610100808354040283529160200191610bb3565b820191906000526020600020905b815481529060010190602001808311610b9657829003601f168201915b50505050508152602001600182018054610bcc90612b47565b80601f0160208091040260200160405190810160405280929190818152602001828054610bf890612b47565b8015610c455780601f10610c1a57610100808354040283529160200191610c45565b820191906000526020600020905b815481529060010190602001808311610c2857829003601f168201915b50505050508152602001600282015481526020016003820154815250509050919050565b600b602052806000526040600020600091509050806000018054610c8c90612b47565b80601f0160208091040260200160405190810160405280929190818152602001828054610cb890612b47565b8015610d055780601f10610cda57610100808354040283529160200191610d05565b820191906000526020600020905b815481529060010190602001808311610ce857829003601f168201915b505050505090806001018054610d1a90612b47565b80601f0160208091040260200160405190810160405280929190818152602001828054610d4690612b47565b8015610d935780601f10610d6857610100808354040283529160200191610d93565b820191906000526020600020905b815481529060010190602001808311610d7657829003601f168201915b5050505050908060020154908060030154905084565b610db48484846105e4565b610dc8610dbf6110f8565b85858585611509565b50505050565b6060610dd982611033565b506000610de46116ba565b90506000815111610e045760405180602001604052806000815250610e2f565b80610e0e846116d1565b604051602001610e1f929190612fa4565b6040516020818303038152906040525b915050919050565b6000600560008473ffffffffffffffffffffffffffffffffffffffff1673ffffffffffffffffffffffffffffffffffffffff16815260200190815260200160002060008373ffffffffffffffffffffffffffffffffffffffff1673ffffffffffffffffffffffffffffffffffffffff16815260200190815260200160002060009054906101000a900460ff16905092915050565b610ed361122f565b600073ffffffffffffffffffffffffffffffffffffffff168173ffffffffffffffffffffffffffffffffffffffff1603610f455760006040517f1e4fbdf7000000000000000000000000000000000000000000000000000000008152600401610f3c91906124f7565b60405180910390fd5b610f4e816112d4565b50565b60007f80ac58cd000000000000000000000000000000000000000000000000000000007bffffffffffffffffffffffffffffffffffffffffffffffffffffffff1916827bffffffffffffffffffffffffffffffffffffffffffffffffffffffff1916148061101c57507f5b5e139f000000000000000000000000000000000000000000000000000000007bffffffffffffffffffffffffffffffffffffffffffffffffffffffff1916827bffffffffffffffffffffffffffffffffffffffffffffffffffffffff1916145b8061102c575061102b8261179f565b5b9050919050565b60008061103f83611809565b9050600073ffffffffffffffffffffffffffffffffffffffff168173ffffffffffffffffffffffffffffffffffffffff16036110b257826040517f7e2732890000000000000000000000000000000000000000000000000000000081526004016110a9919061258d565b60405180910390fd5b80915050919050565b60006004600083815260200190815260200160002060009054906101000a900473ffffffffffffffffffffffffffffffffffffffff169050919050565b600033905090565b61110d8383836001611846565b505050565b600080611120858585611a0b565b9050600073ffffffffffffffffffffffffffffffffffffffff168173ffffffffffffffffffffffffffffffffffffffff16036111645761115f84611c25565b6111a3565b8473ffffffffffffffffffffffffffffffffffffffff168173ffffffffffffffffffffffffffffffffffffffff16146111a2576111a18185611c6e565b5b5b600073ffffffffffffffffffffffffffffffffffffffff168573ffffffffffffffffffffffffffffffffffffffff16036111e5576111e084611d59565b611224565b8473ffffffffffffffffffffffffffffffffffffffff168173ffffffffffffffffffffffffffffffffffffffff1614611223576112228585611e2a565b5b5b809150509392505050565b6112376110f8565b73ffffffffffffffffffffffffffffffffffffffff166112556109bb565b73ffffffffffffffffffffffffffffffffffffffff16146112b4576112786110f8565b6040517f118cdaa70000000000000000000000000000000000000000000000000000000081526004016112ab91906124f7565b60405180910390fd5b565b6112d0828260405180602001604052806000815250611eb5565b5050565b6000600a60009054906101000a900473ffffffffffffffffffffffffffffffffffffffff16905081600a60006101000a81548173ffffffffffffffffffffffffffffffffffffffff021916908373ffffffffffffffffffffffffffffffffffffffff1602179055508173ffffffffffffffffffffffffffffffffffffffff168173ffffffffffffffffffffffffffffffffffffffff167f8be0079c531659141344cd1fd0a4f28419497f9722a3daafe3b4186f6b6457e060405160405180910390a35050565b600073ffffffffffffffffffffffffffffffffffffffff168273ffffffffffffffffffffffffffffffffffffffff160361140b57816040517f5b08ba1800000000000000000000000000000000000000000000000000000000815260040161140291906124f7565b60405180910390fd5b80600560008573ffffffffffffffffffffffffffffffffffffffff1673ffffffffffffffffffffffffffffffffffffffff16815260200190815260200160002060008473ffffffffffffffffffffffffffffffffffffffff1673ffffffffffffffffffffffffffffffffffffffff16815260200190815260200160002060006101000a81548160ff0219169083151502179055508173ffffffffffffffffffffffffffffffffffffffff168373ffffffffffffffffffffffffffffffffffffffff167f17307eab39ab6107e8899845ad3d59bd9653f200f220920489ca2b5937696c31836040516114fc9190612386565b60405180910390a3505050565b60008373ffffffffffffffffffffffffffffffffffffffff163b11156116b3578273ffffffffffffffffffffffffffffffffffffffff1663150b7a02868685856040518563ffffffff1660e01b8152600401611568949392919061301d565b6020604051808303816000875af19250505080156115a457506040513d601f19601f820116820180604052508101906115a1919061307e565b60015b611628573d80600081146115d4576040519150601f19603f3d011682016040523d82523d6000602084013e6115d9565b606091505b50600081510361162057836040517f64a0ae9200000000000000000000000000000000000000000000000000000000815260040161161791906124f7565b60405180910390fd5b805181602001fd5b63150b7a0260e01b7bffffffffffffffffffffffffffffffffffffffffffffffffffffffff1916817bffffffffffffffffffffffffffffffffffffffffffffffffffffffff1916146116b157836040517f64a0ae920000000000000000000000000000000000000000000000000000000081526004016116a891906124f7565b60405180910390fd5b505b5050505050565b606060405180602001604052806000815250905090565b6060600060016116e084611ed9565b01905060008167ffffffffffffffff8111156116ff576116fe612605565b5b6040519080825280601f01601f1916602001820160405280156117315781602001600182028036833780820191505090505b509050600082602001820190505b600115611794578080600190039150507f3031323334353637383961626364656600000000000000000000000000000000600a86061a8153600a8581611788576117876130ab565b5b0494506000850361173f575b819350505050919050565b60007f01ffc9a7000000000000000000000000000000000000000000000000000000007bffffffffffffffffffffffffffffffffffffffffffffffffffffffff1916827bffffffffffffffffffffffffffffffffffffffffffffffffffffffff1916149050919050565b60006002600083815260200190815260200160002060009054906101000a900473ffffffffffffffffffffffffffffffffffffffff169050919050565b808061187f5750600073ffffffffffffffffffffffffffffffffffffffff168273ffffffffffffffffffffffffffffffffffffffff1614155b156119b357600061188f84611033565b9050600073ffffffffffffffffffffffffffffffffffffffff168373ffffffffffffffffffffffffffffffffffffffff16141580156118fa57508273ffffffffffffffffffffffffffffffffffffffff168173ffffffffffffffffffffffffffffffffffffffff1614155b801561190d575061190b8184610e37565b155b1561194f57826040517fa9fbf51f00000000000000000000000000000000000000000000000000000000815260040161194691906124f7565b60405180910390fd5b81156119b157838573ffffffffffffffffffffffffffffffffffffffff168273ffffffffffffffffffffffffffffffffffffffff167f8c5be1e5ebec7d5bd14f71427d1e84f3dd0314c0f7b2291e5b200ac8c7c3b92560405160405180910390a45b505b836004600085815260200190815260200160002060006101000a81548173ffffffffffffffffffffffffffffffffffffffff021916908373ffffffffffffffffffffffffffffffffffffffff16021790555050505050565b600080611a1784611809565b9050600073ffffffffffffffffffffffffffffffffffffffff168373ffffffffffffffffffffffffffffffffffffffff1614611a5957611a5881848661202c565b5b600073ffffffffffffffffffffffffffffffffffffffff168173ffffffffffffffffffffffffffffffffffffffff1614611aea57611a9b600085600080611846565b6001600360008373ffffffffffffffffffffffffffffffffffffffff1673ffffffffffffffffffffffffffffffffffffffff168152602001908152602001600020600082825403925050819055505b600073ffffffffffffffffffffffffffffffffffffffff168573ffffffffffffffffffffffffffffffffffffffff1614611b6d576001600360008773ffffffffffffffffffffffffffffffffffffffff1673ffffffffffffffffffffffffffffffffffffffff168152602001908152602001600020600082825401925050819055505b846002600086815260200190815260200160002060006101000a81548173ffffffffffffffffffffffffffffffffffffffff021916908373ffffffffffffffffffffffffffffffffffffffff160217905550838573ffffffffffffffffffffffffffffffffffffffff168273ffffffffffffffffffffffffffffffffffffffff167fddf252ad1be2c89b69c2b068fc378daa952ba7f163c4a11628f55a4df523b3ef60405160405180910390a4809150509392505050565b6008805490506009600083815260200190815260200160002081905550600881908060018154018082558091505060019003906000526020600020016000909190919091505550565b6000611c79836108e7565b90506000600760008481526020019081526020016000205490506000600660008673ffffffffffffffffffffffffffffffffffffffff1673ffffffffffffffffffffffffffffffffffffffff1681526020019081526020016000209050828214611d255760008160008581526020019081526020016000205490508082600085815260200190815260200160002081905550826007600083815260200190815260200160002081905550505b6007600085815260200190815260200160002060009055806000848152602001908152602001600020600090555050505050565b60006001600880549050611d6d91906130da565b9050600060096000848152602001908152602001600020549050600060088381548110611d9d57611d9c612bd8565b5b906000526020600020015490508060088381548110611dbf57611dbe612bd8565b5b906000526020600020018190555081600960008381526020019081526020016000208190555060096000858152602001908152602001600020600090556008805480611e0e57611e0d61310e565b5b6001900381819060005260206000200160009055905550505050565b60006001611e37846108e7565b611e4191906130da565b905081600660008573ffffffffffffffffffffffffffffffffffffffff1673ffffffffffffffffffffffffffffffffffffffff168152602001908152602001600020600083815260200190815260200160002081905550806007600084815260200190815260200160002081905550505050565b611ebf83836120f0565b611ed4611eca6110f8565b6000858585611509565b505050565b600080600090507a184f03e93ff9f4daa797ed6e38ed64bf6a1f0100000000000000008310611f37577a184f03e93ff9f4daa797ed6e38ed64bf6a1f0100000000000000008381611f2d57611f2c6130ab565b5b0492506040810190505b6d04ee2d6d415b85acef81000000008310611f74576d04ee2d6d415b85acef81000000008381611f6a57611f696130ab565b5b0492506020810190505b662386f26fc100008310611fa357662386f26fc100008381611f9957611f986130ab565b5b0492506010810190505b6305f5e1008310611fcc576305f5e1008381611fc257611fc16130ab565b5b0492506008810190505b6127108310611ff1576127108381611fe757611fe66130ab565b5b0492506004810190505b60648310612014576064838161200a576120096130ab565b5b0492506002810190505b600a8310612023576001810190505b80915050919050565b6120378383836121e9565b6120eb57600073ffffffffffffffffffffffffffffffffffffffff168373ffffffffffffffffffffffffffffffffffffffff16036120ac57806040517f7e2732890000000000000000000000000000000000000000000000000000000081526004016120a3919061258d565b60405180910390fd5b81816040517f177e802f0000000000000000000000000000000000000000000000000000000081526004016120e2929190612baf565b60405180910390fd5b505050565b600073ffffffffffffffffffffffffffffffffffffffff168273ffffffffffffffffffffffffffffffffffffffff16036121625760006040517f64a0ae9200000000000000000000000000000000000000000000000000000000815260040161215991906124f7565b60405180910390fd5b600061217083836000611112565b9050600073ffffffffffffffffffffffffffffffffffffffff168173ffffffffffffffffffffffffffffffffffffffff16146121e45760006040517f73c6ac6e0000000000000000000000000000000000000000000000000000000081526004016121db91906124f7565b60405180910390fd5b505050565b60008073ffffffffffffffffffffffffffffffffffffffff168373ffffffffffffffffffffffffffffffffffffffff16141580156122a157508273ffffffffffffffffffffffffffffffffffffffff168473ffffffffffffffffffffffffffffffffffffffff16148061226257506122618484610e37565b5b806122a057508273ffffffffffffffffffffffffffffffffffffffff16612288836110bb565b73ffffffffffffffffffffffffffffffffffffffff16145b5b90509392505050565b6040518060800160405280606081526020016060815260200160008152602001600081525090565b6000604051905090565b600080fd5b600080fd5b60007fffffffff0000000000000000000000000000000000000000000000000000000082169050919050565b61231b816122e6565b811461232657600080fd5b50565b60008135905061233881612312565b92915050565b600060208284031215612354576123536122dc565b5b600061236284828501612329565b91505092915050565b60008115159050919050565b6123808161236b565b82525050565b600060208201905061239b6000830184612377565b92915050565b600081519050919050565b600082825260208201905092915050565b60005b838110156123db5780820151818401526020810190506123c0565b60008484015250505050565b6000601f19601f8301169050919050565b6000612403826123a1565b61240d81856123ac565b935061241d8185602086016123bd565b612426816123e7565b840191505092915050565b6000602082019050818103600083015261244b81846123f8565b905092915050565b6000819050919050565b61246681612453565b811461247157600080fd5b50565b6000813590506124838161245d565b92915050565b60006020828403121561249f5761249e6122dc565b5b60006124ad84828501612474565b91505092915050565b600073ffffffffffffffffffffffffffffffffffffffff82169050919050565b60006124e1826124b6565b9050919050565b6124f1816124d6565b82525050565b600060208201905061250c60008301846124e8565b92915050565b61251b816124d6565b811461252657600080fd5b50565b60008135905061253881612512565b92915050565b60008060408385031215612555576125546122dc565b5b600061256385828601612529565b925050602061257485828601612474565b9150509250929050565b61258781612453565b82525050565b60006020820190506125a2600083018461257e565b92915050565b6000806000606084860312156125c1576125c06122dc565b5b60006125cf86828701612529565b93505060206125e086828701612529565b92505060406125f186828701612474565b9150509250925092565b600080fd5b600080fd5b7f4e487b7100000000000000000000000000000000000000000000000000000000600052604160045260246000fd5b61263d826123e7565b810181811067ffffffffffffffff8211171561265c5761265b612605565b5b80604052505050565b600061266f6122d2565b905061267b8282612634565b919050565b600067ffffffffffffffff82111561269b5761269a612605565b5b6126a4826123e7565b9050602081019050919050565b82818337600083830152505050565b60006126d36126ce84612680565b612665565b9050828152602081018484840111156126ef576126ee612600565b5b6126fa8482856126b1565b509392505050565b600082601f830112612717576127166125fb565b5b81356127278482602086016126c0565b91505092915050565b600080600080600060a0868803121561274c5761274b6122dc565b5b600061275a88828901612529565b955050602086013567ffffffffffffffff81111561277b5761277a6122e1565b5b61278788828901612702565b945050604086013567ffffffffffffffff8111156127a8576127a76122e1565b5b6127b488828901612702565b93505060606127c588828901612474565b92505060806127d688828901612474565b9150509295509295909350565b6000602082840312156127f9576127f86122dc565b5b600061280784828501612529565b91505092915050565b6128198161236b565b811461282457600080fd5b50565b60008135905061283681612810565b92915050565b60008060408385031215612853576128526122dc565b5b600061286185828601612529565b925050602061287285828601612827565b9150509250929050565b600082825260208201905092915050565b6000612898826123a1565b6128a2818561287c565b93506128b28185602086016123bd565b6128bb816123e7565b840191505092915050565b6128cf81612453565b82525050565b600060808301600083015184820360008601526128f2828261288d565b9150506020830151848203602086015261290c828261288d565b915050604083015161292160408601826128c6565b50606083015161293460608601826128c6565b508091505092915050565b6000602082019050818103600083015261295981846128d5565b905092915050565b6000608082019050818103600083015261297b81876123f8565b9050818103602083015261298f81866123f8565b905061299e604083018561257e565b6129ab606083018461257e565b95945050505050565b600067ffffffffffffffff8211156129cf576129ce612605565b5b6129d8826123e7565b9050602081019050919050565b60006129f86129f3846129b4565b612665565b905082815260208101848484011115612a1457612a13612600565b5b612a1f8482856126b1565b509392505050565b600082601f830112612a3c57612a3b6125fb565b5b8135612a4c8482602086016129e5565b91505092915050565b60008060008060808587031215612a6f57612a6e6122dc565b5b6000612a7d87828801612529565b9450506020612a8e87828801612529565b9350506040612a9f87828801612474565b925050606085013567ffffffffffffffff811115612ac057612abf6122e1565b5b612acc87828801612a27565b91505092959194509250565b60008060408385031215612aef57612aee6122dc565b5b6000612afd85828601612529565b9250506020612b0e85828601612529565b9150509250929050565b7f4e487b7100000000000000000000000000000000000000000000000000000000600052602260045260246000fd5b60006002820490506001821680612b5f57607f821691505b602082108103612b7257612b71612b18565b5b50919050565b6000606082019050612b8d60008301866124e8565b612b9a602083018561257e565b612ba760408301846124e8565b949350505050565b6000604082019050612bc460008301856124e8565b612bd1602083018461257e565b9392505050565b7f4e487b7100000000000000000000000000000000000000000000000000000000600052603260045260246000fd5b60008190508160005260206000209050919050565b60006020601f8301049050919050565b600082821b905092915050565b600060088302612c697fffffffffffffffffffffffffffffffffffffffffffffffffffffffffffffffff82612c2c565b612c738683612c2c565b95508019841693508086168417925050509392505050565b6000819050919050565b6000612cb0612cab612ca684612453565b612c8b565b612453565b9050919050565b6000819050919050565b612cca83612c95565b612cde612cd682612cb7565b848454612c39565b825550505050565b600090565b612cf3612ce6565b612cfe818484612cc1565b505050565b5b81811015612d2257612d17600082612ceb565b600181019050612d04565b5050565b601f821115612d6757612d3881612c07565b612d4184612c1c565b81016020851015612d50578190505b612d64612d5c85612c1c565b830182612d03565b50505b505050565b600082821c905092915050565b6000612d8a60001984600802612d6c565b1980831691505092915050565b6000612da38383612d79565b9150826002028217905092915050565b612dbc826123a1565b67ffffffffffffffff811115612dd557612dd4612605565b5b612ddf8254612b47565b612dea828285612d26565b600060209050601f831160018114612e1d5760008415612e0b578287015190505b612e158582612d97565b865550612e7d565b601f198416612e2b86612c07565b60005b82811015612e5357848901518255600182019150602085019450602081019050612e2e565b86831015612e705784890151612e6c601f891682612d79565b8355505b6001600288020188555050505b505050505050565b7f4e487b7100000000000000000000000000000000000000000000000000000000600052601160045260246000fd5b6000612ebf82612453565b91507fffffffffffffffffffffffffffffffffffffffffffffffffffffffffffffffff8203612ef157612ef0612e85565b5b600182019050919050565b7f546f6b656e20646f6573206e6f74206578697374000000000000000000000000600082015250565b6000612f326014836123ac565b9150612f3d82612efc565b602082019050919050565b60006020820190508181036000830152612f6181612f25565b9050919050565b600081905092915050565b6000612f7e826123a1565b612f888185612f68565b9350612f988185602086016123bd565b80840191505092915050565b6000612fb08285612f73565b9150612fbc8284612f73565b91508190509392505050565b600081519050919050565b600082825260208201905092915050565b6000612fef82612fc8565b612ff98185612fd3565b93506130098185602086016123bd565b613012816123e7565b840191505092915050565b600060808201905061303260008301876124e8565b61303f60208301866124e8565b61304c604083018561257e565b818103606083015261305e8184612fe4565b905095945050505050565b60008151905061307881612312565b92915050565b600060208284031215613094576130936122dc565b5b60006130a284828501613069565b91505092915050565b7f4e487b7100000000000000000000000000000000000000000000000000000000600052601260045260246000fd5b60006130e582612453565b91506130f083612453565b925082820390508181111561310857613107612e85565b5b92915050565b7f4e487b7100000000000000000000000000000000000000000000000000000000600052603160045260246000fdfea2646970667358221220ba12aa3c3f6854874605aab406340bcda2ed371b739ccf44f21f1840b38eadb964736f6c634300081c0033",
  "linkReferences": {},
  "deployedLinkReferences": {}
}